:020000040000FA
:06000000C0EF1FF012002A
:0600180016EF00F01200DB
:02002A000000D4
:04002C00DACFE4FF44
:10003000E2CFDAFFE9CFE4FFEACFE4FFE652F2A431
:1000400015D0170EE66EFC0EE66E72EC1FF0E55250
:10005000E5520001822B000E83230001AA2BAB2363
:100060000001962B972398239923F29482B003D012
:100070000001842B02D00001846B0001852B020E4D
:100080000001815D0BE100018551640807E282A255
:1000900002D0829201D08282856B0CD00001810552
:1000A00004E182820001856B05D0815103E18292D7
:1000B0000001856B00D0E552E5CFEAFFE5CFE9FF0F
:1000C000E5CFDAFF1100F9D9A8EC17F0F3CF14F05F
:1000D000F4CF15F01450151001E153DA87EC17F046
:1000E0000001845164080BE200016069E668010EBA
:1000F000E66E01EC1FF0E552E55287EC17F00001C7
:10010000656BE5EC18F0E80ED88000019655030EFB
:100110009755000E9855000E995516E2966B976B01
:10012000986B996BEEDA00019A2B9B2B9C2B9D2BE5
:100130009A513C0809E29A6B9451951105E0010E21
:10014000E66E66EC0AF0E55200016351040A70E0C5
:10015000070A1CE0010A17E0030A12E0010A02E0A4
:10016000636B69D0FF0E0001605D04E10001010EC8
:10017000636F05D00001030E636F4CEC18F05BD089
:10018000D1EC17F058D02BEC18F055D0000165AF2A
:100190004ED0675168114BE169510B0A2EE0020AFB
:1001A00015E0010A10E00E0A0BE0040A06E0030A5B
:1001B00001E03DD086EC19F03AD0D3EC19F037D0FD
:1001C000AAEC19F034D0BFEC19F031D0020E146E45
:1001D0000F0E6515145C10E16B510001605D0CE1C0
:1001E000800E00016C5D06E26CC0E6FFECEC0AF0EC
:1001F000E55202D0E7EC19F01AD0030E146E0F0E80
:100200006515145C13E16B510001605D0FE1800E18
:1002100000016C5D09E26DC0E6FF6CC0E6FF77ECA3
:1002200010F0E552E55202D070EC1AF000D003D085
:10023000CEEC17F000D002D853D71200D9CFE6FF8A
:10024000E1CFD9FFE652030E0001635D01E0ABD0C0
:10025000210EE66E1DEC1FF0E552DF6EDF5032E03E
:10026000DF500001D8809B552DE20001040E746F11
:10027000860E736F0A0E756F766B060E776F240EFF
:10028000E66E1DEC1FF0E552600F0001786F020E64
:10029000796F240EE66E1DEC1FF0E552E66E88C005
:1002A000E6FF89C0E6FF84D8E552E552E5525CECF2
:1002B00018F0F3CF14F0F4CF15F01450151002E03D
:1002C00000019B6B220EE66E1DEC1FF0E552DF6E07
:1002D000DF502FE0DF500001D8809C552AE200015A
:1002E000040E746F860E736F0A0E756F766B230E95
:1002F000776F600E786F020E796F7A6B7B6B000EF2
:1003000000018A15146EFF0E8B15156E15C014F0C2
:10031000156A14C07CF08A5100017D6F5CEC18F006
:10032000F3CF14F0F4CF15F01450151002E00001D3
:100330009C6B230EE66E1DEC1FF0E552DF6EDF5066
:1003400032E0DF500001D8809D552DE20001040EFF
:10035000746F860E736F0A0E756F766B310E776F42
:10036000240EE66E1DEC1FF0E552600F0001786F61
:10037000020E796F240EE66E1DEC1FF0E552E66E5C
:100380008CC0E6FF8DC0E6FF13D8E552E552E5527A
:100390005CEC18F0F3CF14F0F4CF15F014501510F6
:1003A00002E000019D6BE552E552E7CFD9FF120054
:1003B000D9CFE6FFE1CFD9FF020EE12600017A6B2B
:1003C0007B6BFC0EDB501FE1FD0EDBCF14F0FE0E4D
:00000001FF
